:080000000C9465000C94000053
:100008000C9400000C9400000C9400000C94000068
:100018000C9400000C9400000C9400000C94000058
:100028000C9400000C9400000C9400000C94000048
:100038000C9400000C9400000C9400000C94000038
:100048000C9400000C9400000C94000031323334FE
:1000580035363738392A302357656C636F6D65003C
:100068004E756D626572206F72646572004E756DB3
:10007800626572204F726465723A004E756D6265F2
:10008800722066697865640080C00C00B302540071
:100098000800600260000D00680268000E0075022A
:1000A80075000D00830283000800900260000D00B7
:1000B800980268000E00A50275000200BF029000B9
:1000C8000000F894EE27ECBBF1E0FBBFEBBFE5BF07
:1000D8008DE0A2E0BB27ED938A95E9F780E098E0F0
:1000E800A0E6ED930197E9F7E2E9F0E085919591B3
:1000F800009761F0A591B59105901590BF01F001A9
:1001080005900D920197E1F7FB01F0CFEFE5EDBF08
:10011800E8E0EEBFC0E6D2E00C94D9000E94F601F8
:1001280000E030E0EFE0E4BBE0EFE5BBE3B3EF6015
:100138001E2F1F3F21F0E3B3EF601E2FFACF0E945E
:10014800D301E3B3EF601E2F1F3F11F4E0E029C095
:1001580020E150E0533050F4E22FE12B4E2F4F3F77
:1001680011F4352F03C0220F5F5FF4CF21E050E078
:10017800543068F4E22FE095E5BBE3B3EF601E2F3F
:100188001F3F11F0052F03C0220F5F5FF1CFA3E0DF
:100198000A9FF001ED54FD4FDF01EE27A30FBE1FAC
:1001A800EC910E94FD0126960895259700E0B89AE3
:1001B800C098F9D0A0E1CAD09AD0A0E6B2E0F7D0B2
:1001C800A8E6B2E0B2D0AADF1E2F103009F44FC063
:1001D800103310F01A3308F00DC0E02F0F5FF0E075
:1001E800DE01EA0FFB1F1083C09AD9D0C098A12F57
:1001F80088D039C01A3281F5E02FF0E0DE01AE0F69
:10020800BF1FE0E0EC93C09AA8ECB0E00E94EC01BC
:10021800C09830E0333070F46AD0C5D0E0E0EA939B
:10022800A0E058D0A5E7B2E0C2D0DE017ED0BBD0B6
:100238003F5FF0CF5CD0A3E8B2E0B9D0DE0175D063
:10024800A4EFB1E00E94EC0152D0A0E9B2E0AFD037
:10025800A8E9B2E06AD007C0133229F400E047D019
:10026800A5EAB2E0A4D0A8ECB0E00E94EC01ABCFC4
:10027800FFCFAA93E881E07111F0DA9A01C0DA9809
:10028800E881E07211F0DB9A01C0DB98E881E07444
:1002980011F0DC9A01C0DC98E881E07811F0DD9A71
:1002A80001C0DD988DE08A95F1F7D99A8DE08A959D
:1002B800F1F7D9988DE08A95F1F76FC0AA93A881D4
:1002C800D8DFE881E295E883A881D3DF85E88A95BD
:1002D800F1F763C0AA93E881F0E0E154FD4FE081B3
:1002E800A981AE0FEBDF5980488022960895A2E0DD
:1002F80063D0ACE0E3DFA1E05FD0E0E04E2E5E2EFD
:100308000895AA93A881AA3011F0571440F0E0E0AC
:10031800EA934394A42DDEDFA881AA30F1F1539427
:10032800D89AA881CBDFD89838C0BA93AA931A93E1
:10033800A981BA81ED91A983BA831E2FE03019F003
:10034800A12FDFDFF5CF188123960895AA93D29ABB
:10035800D39AD49AD59AD19AD09AD79AD998D89824
:10036800DF987880E881E058E093C102E881E054A2
:10037800E093C20214D025D024D023D0A0E279DFA4
:1003880088EC90E00197F1F7A8E298DFA4E096DF07
:10039800A5E894DFA6E092DFAADF21960895A4E1FC
:1003A800B0E00C94EC01A4E6B0E00C94EC01BDDFE5
:1003B800E0E0EA93A1E08ECF81DFA3E0B0E00C9407
:1003C800EC01A0E356DF88EC90E00197F1F708957F
:1003D800109639F0A89580ED97E00197F1F71197FD
:1003E800C9F708955A934A933A932A931A930A930A
:1003F80008955D814C813B812A8119810881089586
:00000001FF
